:020000040800F2
:100000002833002031020008DF070008A30700089A
:10001000DD070008F9060008D50B00080000000005
:10002000000000000000000000000000990100082E
:10003000FB06000800000000DD010008C1090008FF
:100040004B0200084B0200084B0200084B0200085C
:100050004B0200084B0200084B0200084B0200084C
:100060004B0200084B0200084B0200084B0200083C
:100070004B0200084B0200084B0200084B0200082C
:100080004B0200084B0200084B0200084B0200081C
:100090004B0200084B0200084B0200084B0200080C
:1000A0004B0200084B0200084B0200084B020008FC
:1000B0004B0200084B0200084B0200084B020008EC
:1000C0004B0200084B0200084B0200084B020008DC
:1000D0004B020008250A00084B0200084B020008EA
:1000E0004B0200084B0200084B02000800F002F827
:1000F00000F042F80AA090E8000C82448344AAF180
:100100000107DA4501D100F037F8AFF2090EBAE87D
:100110000F0013F0010F18BFFB1A43F0010318473B
:10012000A0280000C0280000103A24BF78C878C179
:10013000FAD8520724BF30C830C144BF04680C60ED
:10014000704700000023002400250026103A28BF35
:1001500078C1FBD8520728BF30C148BF0B60704739
:10016000642900F0F180732900F0FE8100207047BF
:100170001FB51FBD10B510BD00F08BFA1146FFF77B
:10018000F7FF00F08DFD00F0A9FA03B4FFF7F2FFCE
:1001900003BC00F020FD0000224B19680868B0E89D
:1001A000F00F80F30988BFF36F8F4FF0000080F3EA
:1001B00011884EF00D0E70470000000006480068E0
:1001C000006880F3088862B661B6BFF34F8FBFF353
:1001D0006F8F00DF00BF00BF08ED00E0EFF3098084
:1001E000BFF36F8F0F4B1A6820E9F00F106008B54E
:1001F0004FF0500080F31188BFF34F8FBFF36F8F24
:1002000001F0FEFD4FF0000080F31188BDE80840CA
:1002100019680868B0E8F00F80F30988BFF36F8FA2
:10022000704700BF3C000020EFF3058070470000DE
:100230000948804709480047FEE7FEE7FEE7FEE77A
:10024000FEE7FEE7FEE7FEE7FEE7FEE704480549B6
:10025000054A064B70470000D5090008ED0000086C
:10026000282D002028330020282F0020282F0020B0
:10027000704700000FB4044910B503AA029800F0BB
:1002800077F910BC5DF814FB240000202DE9F04143
:100290000E460446002020622046E168884730B3BD
:1002A000252805D0D4E901219047206A401CF2E7B7
:1002B000E168204600278847050018D0A5F14100D5
:1002C000192802D820354FF40067324629462046C7
:1002D0002760FFF745FF40B1012804D0F61D26F046
:1002E00007060836D8E7361DD6E72846DAE7206A3B
:1002F000BDE8F08170B50C460546012A05D0287886
:10030000800600D5EA69002302E0012305E05B1CBA
:10031000934202D2E05C0028F9D1A869E618C01A1D
:10032000A861286A184428622846AFF3008004E0D8
:10033000D5E9012114F8010B9047B442F8D32846BF
:10034000AFF3008070BD00002DE9F04106460024A7
:1003500010687529314616A510D0AFF3008000282B
:1003600002DA404213A507E031688A0701D512A5D9
:1003700002E0490704D511A5012401E0AFF3008094
:1003800000210A2206F1240709E0B0FBF2FCB0FBD1
:10039000F2F302FB1C00303078541846491C002848
:1003A000F3D123462A463046BDE8F04100F059B863
:1003B000000000002D0000002B00000020000000C5
:1003C000032A40F2308010F0030C00F0158011F881
:1003D000013BBCF1020F624498BF11F801CB00F859
:1003E000013B38BF11F8013BA2F1040298BF00F8AD
:1003F00001CB38BF00F8013B11F0030300F0CA80C5
:10040000083AC0F0088051F8043B083A51F804CB90
:10041000A0E80810F5E7121D5CBF51F8043B40F856
:10042000043BAFF30080D20724BF11F8013B11F861
:1004300001CB48BF11F8012B24BF00F8013B00F8A5
:1004400001CB48BF00F8012B704702F0FF0343EADD
:10045000032242EA024200F0D1B870477047704769
:1004600070472DE9F0470D4699469246044600F143
:1004700024080168880604D5E06921F01001216094
:1004800000E00120A84201DD471B00E00027A16930
:100490007A1902EB0900081AA0612078C00602D47C
:1004A0002046AFF30080002608E0D4E901211AF8C5
:1004B00006009047206A401C761C20624E45F4DB03
:1004C0002078C0060AD52046AFF3008006E0D4E9C4
:1004D000012130209047206A401C2062381EA7F17D
:1004E0000107F4DC07E0D4E9012118F80500904782
:1004F000206A401C2062281EA5F10105F3DC20467D
:10050000AFF300802078000602D50220BDE8F08716
:100510000120FBE701694A1C02610878704700B5B9
:100520008FB0CDE901310021059105497944CDE92C
:10053000031011466846FFF7A9FE0FB000BD00008A
:10054000E5FFFFFF10B5436913B1AFF3008001E091
:10055000FFF7D0FE012010BD127800F124010A70CF
:1005600000224A700122EDE711684FF0FF32E9E7FF
:10057000074B70B50D467B44FFF7D1FF0446284674
:1005800000F05CF810B14FF0FF3070BD204670BD38
:10059000A706000010B5203AC0F00B80B1E8185053
:1005A000203AA0E81850B1E81850A0E81850BFF45D
:1005B000F5AF5FEA027C24BFB1E81850A0E81850FC
:1005C00044BF18C918C0BDE810405FEA827C24BF50
:1005D00051F8043B40F8043B08BF7047D20728BFDE
:1005E00031F8023B48BF11F8012B28BF20F8023B2D
:1005F00048BF00F8012B70474FF000020429C0F0FB
:10060000128010F0030C00F01F80CCF1040CBCF140
:10061000020F18BF00F8012BA8BF20F8022BA1EB96
:100620000C0100F011B85FEAC17C24BF00F8012B77
:1006300000F8012B48BF00F8012B7047007B00F049
:10064000800070474FF0000200B51346944696466E
:10065000203922BFA0E80C50A0E80C50B1F12001D5
:10066000BFF4F7AF090728BFA0E80C5048BF0CC083
:100670005DF804EB890028BF40F8042B08BF7047E1
:1006800048BF20F8022B11F0804F18BF00F8012B53
:100690007047754600F02CF8AE4605006946534693
:1006A00020F00700854618B020B5FFF7CFFDBDE864
:1006B00020404FF000064FF000074FF000084FF0C9
:1006C000000B21F00701AC46ACE8C009ACE8C0095A
:1006D000ACE8C009ACE8C0098D46704710B50446C7
:1006E000AFF300802046BDE81040FFF74EBD00008C
:1006F00000487047C42C0020FEE77047F0B5CA7868
:10070000002502F00F03D20601D58A7813430A7838
:100710004FF00F0E12F0FF0F4FF001021CD00468D3
:100720000F8802FA05F63740B74211D14FEA850C1F
:100730000EFA0CF724EA070703FA0CF43C43CF78CF
:10074000282F02D0482F02D002E0466100E0066167
:100750006D1C082DE4D304600C88FF2C1ED944685E
:100760005FF0000606F1080702FA07F50F882F4030
:10077000AF420FD14FEA860C0EFA0CF7BC4303FAD6
:100780000CF73C43CF78282F00D14561CF78482F14
:1007900000D10561761C082EE4D34460F0BD0161F0
:1007A0007047FEE738B50121102000F055F84FF4EE
:1007B0000054ADF8004010208DF803000320064DD2
:1007C0008DF8020069462846FFF798FF2146284623
:1007D000FFF7E5FF38BD000000100140FEE770475D
:1007E00070B50F23C47801780122F4B1144C246849
:1007F000457804F4E064C4F5E064240AC4F1040616
:10080000E3408478B5401C402C4301F1E0212301F2
:1008100081F80034007800F01F018A404009800010
:1008200000F1E020C0F8002170BD01F01F008240FF
:100830004809800000F1E020C0F8802170BD000070
:100840000CED00E0024908430249086070470000CF
:100850000000FA050CED00E0044A0029916901D07E
:10086000014300E0814391617047000000100240A5
:1008700030B51F494A6812F00C031E4A03D0042BFE
:1008800001D0082B21D002604A680F231A4C03EADA
:100890001212A35C0268DA4042604B68072505EA41
:1008A0001323E35C22FA03F383604B6805EAD32346
:1008B000E35CDA40C2604968032303EA9131231FF5
:1008C000595CB2FBF1F1016130BD4A684B6802F43A
:1008D00070124FF0020413F4803F04EB924202D0F6
:1008E0004B689B0301D5054B00E0024B5A43CAE716
:1008F0000010024000127A002C00002000093D0088
:100900000CB50021264801910091026842F4803222
:1009100002604FF4A063026802F400320092019A70
:10092000521C0192009A12B9019A9A42F3D10268BC
:10093000920333D5012100911A490A6842F010024E
:100940000A600A6822F003020A600A6842F00202A2
:100950000A604168416041684160416841F48061DA
:100960004160416821F47C114160416841F4E81123
:100970004160016841F08071016001688901FCD526
:10098000416821F003014160416841F0020141608A
:100990004168C1F381010229FAD10CBD00910CBD5F
:1009A00000100240002002404FF0E02104280869B6
:1009B00003D020F004000861704740F00400FAE71B
:1009C00010B501F09FFD012803D0BDE8104001F0F3
:1009D0008FBA10BD0F4810B5016841F001010160E8
:1009E00041680D4A1140416001680C4A11400160A4
:1009F000016821F480210160416821F4FE01416019
:100A00004FF41F018160FFF77BFF05494FF0006045
:100A1000086010BD001002400000FFF8FFFFF6FE66
:100A200008ED00E070B5194C40F22551204600F069
:100A30003FF8002818D0204600F0C8F8C2B2144889
:100A400001880B0410D44C044FF000030DD50A2A82
:100A500001D0038002E041F4004101800D48D0F84C
:100A6000B411C943C0F8B41170BD0D2A0AD0C1F346
:100A70000D04094D491C89B22A550180C729F3D9B3
:100A8000038070BD41F48041018070BD0038014099
:100A90002000002000002242B000002000298189AF
:100AA00002D041F4005101E021F4005181817047EE
:100AB00030B501F01F0201240025C1F3421304FAEE
:100AC00002F2012B0FD0022B0FD0838A4FEA1121A3
:100AD0000088134204FA01F400EA040001D000B1D6
:100AE0000125284630BD8389F0E7038AEEE710B57B
:100AF000C1F3421301F01F040121A140012B07D0D3
:100B0000022B07D01430002A026805D00A4304E003
:100B10000C30F8E71030F6E78A43026010BD0000A1
:100B200030B50446008A85B00D464CF6FF7108408A
:100B3000E98801432182A1894EF6F3100140A8887B
:100B40002A8910436A890A431043A081A08A4FF67C
:100B5000FF410840A9890143A1826846FFF788FE4A
:100B60001948844201D1039800E00298A189090440
:100B700000EBC00101EB0010296801D5490000E03D
:100B80008900B0FBF1F06422B0FBF2F109010B091E
:100B90006FF018056B4300EB8300A3891D044FF031
:100BA000320306D503EBC000B0FBF2F000F0070003
:100BB00005E003EB0010B0FBF2F000F00F0008437B
:100BC000208105B030BD0000003801408088C0F3AE
:100BD00008007047FEE7704710B50420FFF7E4FEF9
:100BE0000C480D4A01680D48B1FBF2F3B1FBF2F17C
:100BF0004FF47A7251430370012242804FF0E0209B
:100C0000026942F0020202614161016941F00101A1
:100C1000016110BD0800002040420F001C000020B0
:100C200004490A885206FCD5024AC1B2121D11803D
:100C300070470000003801400D4D0E4E00244FF467
:100C4000FA772878312802D0302804D00CE000F060
:100C5000DDFD09A002E000F0D9FD0CA0FFF70AFBC2
:100C600034802C7000F00EFE384600F017FFE8E7E5
:100C7000B0000020200000204672656552544F539A
:100C8000CAD5B5BDC1CB310D0A00000046726565FD
:100C900052544F53CAD5B5BDC1CB300D0A00000028
:100CA0001CB54FF44070FFF7CDFDFFF795FF4FF4F3
:100CB000E13000F017FDFFF775FD09490020C1F88C
:100CC000B40108490120CDE900010023802206A1DA
:100CD000084801F0EBFB01F041F800201CBD0000CA
:100CE000000022420000002073746172745F74611E
:100CF000736B0000A51600082DE9F041184C0F4653
:100D00000546E6682068001D00F03CFD38B9206803
:100D100090F82C1001208840216981432161681CD2
:100D200007D137B12168BDE8F0410E48091D00F038
:100D300061BD20683544B5424560216805D2A06B8D
:100D4000BDE8F041091D00F03DBD606B091D00F0DC
:100D500039FDA06A854200D2A562BDE8F08100009D
:100D60003C000020880400202DE9F041054600F0F9
:100D70004DFD2D4CA068401CA06020682B4F10B189
:100D8000606930B32BE02560A068012827D10026D8
:100D900006EB860007EB800000F006FD761C202E97
:100DA000F6D3234800F000FD2148143000F0FCFC8D
:100DB0001F48283000F0F8FC1D483C3000F0F4FCDF
:100DC0001B48503000F0F0FC194860631430A063F9
:100DD00005E02068E96AC06A884200D82560606A38
:100DE000401C60626864E96A0120226988401043FF
:100DF000206101EB810007EB8000291D00F0FAFC67
:100E000000F040FD606900280CD02068E96AC06AE3
:100E1000884207D207494FF080500860BFF34F8FD8
:100E2000BFF36F8FBDE8F0813C000020B8010020C7
:100E30003804002004ED00E010B500F0E7FC0E4C93
:100E40002068A0B90D4800F0AFFC0C48143000F049
:100E5000ABFC0A48E060143020610022102105201C
:100E600001F05CF8206010B105A100F0E1FDBDE8E3
:100E7000104000F007BD0000780000209C04002016
:100E8000546D72510000000070B5114E114C17E006
:100E900000F0AEFF3068B8B101F062FC00F0B6FCC3
:100EA000F068C568281D00F06DFCA068401EA060B9
:100EB0006068401E606000F0E5FC284600F055F8D0
:100EC00060680028E4D170BD01F04AFCF8E700003A
:100ED000740400203C00002030B4026C0B46002A51
:100EE0000BD0C1681144C1604468A14201D30168BC
:100EF000C16030BC1846FFF763BA30BC70472DE9BB
:100F0000F041856B174604460026026C82B1C7B1DA
:100F1000E068FFF755FAE168206C091AE160226881
:100F2000914202D26168081AE060022F16D017E0E1
:100F30002068A8B9606801F06DFB0646002060607B
:100F40000EE0A068FFF73CFA216CA0680844A0609E
:100F50006168884204D32068A06001E005B16D1E7D
:100F60006D1CA5633046BDE8F08110B50446006BEA
:100F700000F0BAFC2046BDE8104000F0B5BC00000F
:100F800010484FF42051420706D0C01D0D4920F0F3
:100F90000700411AC1F520510B4A00230144C2E960
:100FA00000030839103A21F0070111604B600B6013
:100FB0000B1AC0E9001393604FF000405360D060FB
:100FC00070470000C4040020A8000020074C4FF028
:100FD0008056074DFFF758FF20680128FAD92E6088
:100FE000BFF34F8FBFF36F8FF4E70000B80100200D
:100FF00004ED00E02DE9F047DDE909840E461746CF
:10100000824691009946089DA522206BFFF71DFAA4
:101010006FF00301206B01EB8701084420F0070704
:10102000780705D040F22B3219A11EA0FFF722F954
:1010300000202218315C82F83410315C11B1401C60
:101040001028F6D3002684F84360202D00D31F25F6
:10105000E562C4E91356201D00F0B1FB04F118004D
:1010600000F0ADFB2461C5F120006462A0616665FB
:1010700084F858604A465146384600F001FB20602B
:10108000B8F1000F01D0C8F80040BDE8F0870000BB
:101090002E2E5C4672656552544F535C7461736BBF
:1010A000732E63004572726F723A25732C25640D9E
:1010B0000A00000030B5114900E011460A6882427A
:1010C000FBD34B685C18844203D1406818444860E5
:1010D000084643681C18944209D1084C103C246807
:1010E000A24209D052681A4442600A68126802603B
:1010F000814200D0086030BD0460F9E7A8000020FC
:1011000070B5002441600B4D0061914206D8D11AA0
:101110008269914206D2011D286907E09A4203D2F2
:10112000994201D3012403E0011DE86800F04AFB65
:10113000204670BD7800002010B5044600F066FB24
:10114000A06B28B15FF0000400F09CFB204610BDAE
:101150000124F9E72DE9F34100980F460026846C3D
:101160002CB940F6CE1216A11AA0FFF783F8A06B97
:10117000E16B884205D340F6CF1211A115A0FFF70D
:1011800079F8A06BE16B88420CD294F945503A464D
:1011900069462046FFF7B3FE0646681C05D06D1C65
:1011A00084F845503046BDE8FC81606A0028F9D0DB
:1011B00004F1240001F088FA0028F3D00126F1E7B9
:1011C0002E2E5C4672656552544F535C7175657581
:1011D000652E63004572726F723A25732C25640D7B
:1011E0000A000000F8B5054614480E46C068C068FD
:1011F000C468201D00F0C6FAE069012817D1A06973
:101200002B46411932462046FFF77AFF78B100207D
:101210000346014600902A46204601F089FB30B97A
:1012200007494FF4027201F11800FFF723F8616AD1
:1012300001B02046BDE8F0400847000078000020DB
:101240009428000870B588B02F4E53E00498002809
:1012500006DADDE90601059A90470498002849DB83
:10126000069C606910B1201D00F08CFA02A800F005
:10127000A7F8054604980A283CD2DFE800F00505E7
:10128000053B273805053B270598A169034601441E
:101290002A462046FFF734FF00282BD0616A2046FB
:1012A0008847E069012825D1002000900598A169B0
:1012B000002342181946204601F03AFBD0B940F20B
:1012C000213212A117A0FEF7D5FF13E00598A06107
:1012D00028B94FF44E720DA112A0FEF7CBFFA06902
:1012E0002B4641191A462046FFF70AFF02E0204626
:1012F00000F0FAFA00231A4604A9306800F04AFE0A
:101300000028A3D108B070BD780000202E2E5C46C6
:1013100072656552544F535C74696D6572732E63C8
:10132000000000004572726F723A25732C25640D1F
:101330000A000000F8B50D46064600F059FD684663
:1013400000F03EF80446009810B101F009FAF8BD2B
:101350001148ADB101690968D9B10025311B2A4690
:10136000006800F079FB01F0FBF90028EFD10B4990
:101370004FF080500860BFF34F8FBFF36F8FF8BD01
:10138000A642EBD801F0ECF921463046FFF72AFFE0
:10139000F8BD0125E2E700007800002004ED00E040
:1013A0000648416B096829B1416BC968C968496839
:1013B000816270474FF0FF31FAE700003C000020E7
:1013C00070B5054601F0ACF8064E0446B06884429C
:1013D00003D200F009F8012000E000202860204638
:1013E000B46070BD78000020F8B5184D26E0C068E4
:1013F000C4680668201D00F0C5F9616A2046884768
:10140000E06901281AD1A0693044B04206D92461AC
:101410006060211DE86800F0D5F90FE00020034668
:10142000014600903246204601F082FA30B9084960
:1014300040F2923201F11800FEF71CFFE8680168E3
:101440000029D4D12969C5E90310F8BD780000202E
:101450009428000808484068401C04D0F42207A1E2
:1014600011A0FEF707FF502080F31188BFF34F8FC4
:10147000BFF36F8FFEE700008C0000202E2E5C462D
:1014800072656552544F535C706F727461626C6523
:101490005C525644535C41524D5F434D335C706F18
:1014A00072742E63000000004572726F723A2573E9
:1014B0002C25640D0A000000074CE068016841B16A
:1014C000C0680021D0F80000FFF734FFFFF7BAFE34
:1014D000F3E701210020F7E7780000202DE9F04133
:1014E000044600F093F994F9455004F1240610E005
:1014F000A06C20B100212046FFF72CFE04E0606ABA
:1015000048B1304601F0E0F808B100F063FB6D1E11
:101510006DB2002DECDC4FF0FF3684F8456000F032
:10152000B1F900F073F994F9445004F1100709E09F
:10153000206948B1384601F0C7F808B100F04AFB0D
:101540006D1E6DB2002DF3DC84F84460BDE8F041FF
:1015500000F098B92DE9F0410546002700F048FC5D
:10156000324E306808B9FFF70BFDF06805424FD1E5
:10157000002D4DD0083568070BD005F00700C0F1ED
:1015800008000544680704D0BF2229A132A0FEF755
:1015900071FE002D3CD07068854239D82348103048
:1015A00001460C6801E020460C466168A94202D25F
:1015B00021680029F7D13168B0468C4228D00768ED
:1015C0002168016060680837401B10280ED9661931
:1015D000700704D0EC2216A11FA0FEF74BFE606836
:1015E000401B706030466560FFF764FD6268D8F8A4
:1015F00004104046891AC8F80410D8F808309942F7
:1016000000D28160D8F80C0002430020C4E9000237
:1016100001F0A6F8780705D04FF4967204A10EA049
:10162000FEF728FE3846BDE8F08100009800002053
:101630002E2E5C4672656552544F535C706F727407
:1016400061626C655C4D656D4D616E675C6865617E
:10165000705F342E630000004572726F723A25731A
:101660002C25640D0A0000000449086818B10868B8
:10167000026D521C02650868704700003C000020A3
:1016800010B5031F4FF080741C601B1F21F0010177
:101690001960191F024B0B60143940380A6010BDE5
:1016A000551400081CB500F0B1F8094900230C1FBF
:1016B00032226068CDE9000106A1094800F0F6FE7B
:1016C000206800F021FABDE81C4000F0DBB8000003
:1016D000040000206C6564305F7461736B0000006F
:1016E000390C000870B5054686B0012144F20400AB
:1016F000FFF7B2F84FF40070ADF8100003248DF836
:10170000124018201D4E8DF8130004A93046FEF734
:10171000F5FF3015ADF8100004208DF8130004A972
:101720003046FEF7EBFF25208DF814008DF81540AC
:101730008DF8164001208DF8170005A8FFF750F826
:101740000020ADF80400ADF80600ADF80800ADF8D3
:101750000C000C200A4CADF80A00009569462046A2
:10176000FFF7DEF9012240F225512046FFF7BFF9CD
:1017700001212046FFF792F906B070BD0008014034
:1017800000380140D0E9013201699A60D0E90123B3
:101790005A604A68824201D182684A60002202612E
:1017A0000868401E0860704700F108014FF0FF32E2
:1017B000C0E90112C1600161002101607047002190
:1017C0000161704730B50B685A1C02D000F1080265
:1017D00002E0026904E02246546825689D42FAD975
:1017E00053684B6099608A60516008610168491CC8
:1017F000016030BD42684A6093688B6093685960AD
:10180000916008610168491C01607047502080F3B5
:101810001188BFF34F8FBFF36F8F09494868401C91
:10182000486001280AD10748006810F0FF0F05D072
:101830004FF4BD7204A10FA0FEF71CBD704700005D
:101840008C00002004ED00E02E2E5C46726565528F
:10185000544F535C706F727461626C655C52564495
:10186000535C41524D5F434D335C706F72742E6315
:10187000000000004572726F723A25732C25640DCA
:101880000A00000010B5084C606828B940F28112C7
:1018900006A111A0FEF7EEFC6068401E606001D159
:1018A00080F3118810BD00008C0000202E2E5C46B5
:1018B00072656552544F535C706F727461626C65EF
:1018C0005C525644535C41524D5F434D335C706FE4
:1018D00072742E63000000004572726F723A2573B5
:1018E0002C25640D0A00000070B500282AD0164D82
:1018F000A0F108046068E968084205D14FF4A072BD
:1019000012A11CA0FEF7B6FC206828B140F24112DB
:101910000EA118A0FEF7AEFC6168E868014211D084
:101920002268002A0ED18143616000F061FA60688C
:101930006968084468602046FFF7BCFBBDE870405A
:1019400000F00EBF70BD0000980000202E2E5C46F7
:1019500072656552544F535C706F727461626C654E
:101960005C4D656D4D616E675C686561705F342EBE
:10197000630000004572726F723A25732C25640D66
:101980000A00000006484FF47A710068B0FBF1F1DC
:101990004FF0E020491E41610721016170470000BE
:1019A0000800002010B5FEF73FFC104C10280CD3A7
:1019B00000F1E02090F8F0032178884205D24FF43E
:1019C0002A720BA115A0FEF755FC18480068A16803
:1019D00000F4E060884207D9BDE810404FF42E7251
:1019E00003A10EA0FEF746BC10BD00008C00002035
:1019F0002E2E5C4672656552544F535C706F727444
:101A000061626C655C525644535C41524D5F434D7C
:101A1000335C706F72742E63000000004572726F49
:101A2000723A25732C25640D0A0000000CED00E0CD
:101A300010B5084B002200BF53F832401CB1521CB5
:101A4000082AF9D310BD43F8321003EBC2014860F5
:101A500010BD00007801002070B515460E46044602
:101A6000FFF7D4FE94F944100020491C01D184F8FA
:101A7000440094F94510491C01D184F84500FFF752
:101A800001FFA06B28B92A46314604F1240000F07A
:101A9000D1F82046BDE87040FFF720BD10B5040026
:101AA00012D00E48006B28B140F2CF420CA111A019
:101AB000FEF7E0FB00F09CF900212046FFF71CF93F
:101AC00000F04EFE002807D10E494FF0805008600C
:101AD000BFF34F8FBFF36F8F10BD00003C0000209D
:101AE0002E2E5C4672656552544F535C7461736B65
:101AF000732E63004572726F723A25732C25640D44
:101B00000A00000004ED00E070B50546FFF77EFE18
:101B1000234C05B92568281DFFF734FE58B9E86A3B
:101B2000204A00EB800152F8211021B901218140A7
:101B3000206988432061A86A18B105F11800FFF7F1
:101B400021FE606A401C60622068854207D1291D21
:101B50001548FFF74FFE6068401C606007E0A06812
:101B6000401EA0602846FFF700FAFFF719FCFFF7B8
:101B700089FE6069002812D0206885420FD1206B51
:101B800028B140F2654209A10DA0FEF773FB104990
:101B90004FF080500860BFF34F8FBFF36F8F70BD61
:101BA0003C000020B8010020740400202E2E5C466A
:101BB00072656552544F535C7461736B732E63008E
:101BC0004572726F723A25732C25640D0A0000006D
:101BD00004ED00E001490120C86170473C0000208D
:101BE00070B50D46040005D140F6063207A10CA0E1
:101BF000FEF740FB0E48016820461831FFF7E2FD72
:101C00002846BDE870400121FFF776B82E2E5C46CD
:101C100072656552544F535C7461736B732E63002D
:101C20004572726F723A25732C25640D0A0000000C
:101C30003C00002070B514460D46060005D140F664
:101C4000313209A10DA0FEF715FB1048016830469E
:101C50001831FFF7CFFD0CB14FF0FF352146284674
:101C6000BDE87040FFF748B82E2E5C46726565529D
:101C7000544F535C7461736B732E63004572726FC3
:101C8000723A25732C25640D0A0000003C000020E8
:101C900070B5040039D01D4DE06A2968C96A8842D0
:101CA00033D2A069002804DB2868C06AC0F1200094
:101CB000A061E16A164E01EB8101606906EB8101CA
:101CC00088421FD1201DFFF75DFD012150B9E06A58
:101CD00000EB800256F8222022B92A6901FA00F0AE
:101CE00082432A612868C06AE0622A698140114300
:101CF000296100EB800006EB8000211DBDE87040EB
:101D0000FFF778BD2868C06AE06270BD3C00002023
:101D1000B801002010B5040005D140F6C13205A17C
:101D200009A0FEF7A7FA0C48016A2160C06860604C
:101D300010BD00002E2E5C4672656552544F535CF8
:101D40007461736B732E63004572726F723A257300
:101D50002C25640D0A0000003C0000201CB517482B
:101D60000024CDE900402346822215A1164800F048
:101D70009DFB012803D100F0A1FD01280AD0401CE1
:101D80001BD102B040F28472BDE810400FA114A034
:101D9000FEF770BA502080F31188BFF34F8FBFF366
:101DA0006F8F06484FF0FF312C388162012141616D
:101DB000C460BDE81C4000F061B81CBD6800002094
:101DC00049444C4500000000CD0F00082E2E5C4613
:101DD00072656552544F535C7461736B732E63006C
:101DE0004572726F723A25732C25640D0A0000004B
:101DF0000248016B491C0163704700003C00002051
:101E000070B5134C206B10B10120E06170BD002053
:101E1000E06120690F4EB0FA80F0C0F11F0000EBC6
:101E2000800556F8250028B940F6F6220AA10FA031
:101E3000FEF720FA06EB850000F1080241684968C8
:101E40004160914201D149684160C868206070BD1D
:101E50003C000020B80100202E2E5C4672656552C1
:101E6000544F535C7461736B732E63004572726FD1
:101E7000723A25732C25640D0A0000001CB519491F
:101E800008780190FF20087008788DF800009DF810
:101E90000000154A00F0500010700720906005E027
:101EA0009DF800305B008DF80030401E9DF800303A
:101EB0001B06F5D4000200F4E06090600198087001
:101EC0000A48016841F470010160016841F0704105
:101ED0000160FFF757FD00205060FEF76FF900200A
:101EE0001CBD000000E400E08C00002020ED00E0BC
:101EF00010B5502080F31188BFF34F8FBFF36F8F61
:101F000000F014FB18B104494FF080500860002025
:101F100080F3118810BD000004ED00E02DE9F041D0
:101F200017460E46050005D14FF4C47210A115A046
:101F3000FEF7A0F9BEB105FB06F05430FFF70AFB2F
:101F400004000ED004F154007EB12060C4E90F56A5
:101F50002046012100F0E0F884F85070002120466E
:101F6000A164BDE8F0810020E7E72460EEE700000F
:101F70002E2E5C4672656552544F535C71756575C3
:101F8000652E63004572726F723A25732C25640DBD
:101F90000A0000002DE9FF4F002683B09B468A46C9
:101FA000040005D140F2DC4251A156A0FEF762F9CF
:101FB000BAF1000F07D1206C28B140F2DD424CA1EC
:101FC00050A0FEF757F900F09DFA38B9059828B1EE
:101FD0004FF49C6246A14BA0FEF74CF94FF000096C
:101FE0004FF08057DFF82C81FFF710FCA56B4DB345
:101FF00051462046E668FEF76FFFBBF1000F14D094
:10200000E660606A58B104F1240000BF00F05CFB98
:1020100028B1C8F80070BFF34F8FBFF36F8FFFF781
:1020200031FC012007B0BDE8F08F6D1EA56320686C
:1020300010B9FFF719FB606020690028EFD004F1A8
:102040001000E3E7059808B11EB106E0FFF71AFC9F
:1020500027E06846FFF75EFE0126FFF713FCFFF757
:10206000C7FEFFF7D3FB94F94400401C01D184F86C
:10207000449094F94500401C01D184F84590FFF745
:1020800001FC05A9684600F0CDF9002820460AD0D9
:10209000FFF724FA00F064FB2046FFF74DF8002814
:1020A000A2D00020BEE7FFF747F8D8B1206830B9CA
:1020B000FFF7ACFB6068FFF7EBFDFFF7E3FB04F114
:1020C00024000599FFF78CFD2046FFF707FA00F082
:1020D00047FB002888D1C8F80070BFF34F8FBFF3CB
:1020E0006F8F81E72046FFF7F9F900F039FB7BE7B6
:1020F0002E2E5C4672656552544F535C7175657542
:10210000652E63004572726F723A25732C25640D3B
:102110000A00000004ED00E070B50D46040005D192
:1021200040F21B121CA121A0FEF7A4F8FFF76EFBE2
:10213000D4E90F20216802FB001161600021A16336
:102140002168A1600A46D4E90F01401E00FB01216D
:10215000E16021464FF0FF3001F8440F487004F170
:1021600010004DB1FFF720FB04F12400FFF71CFB2A
:10217000FFF788FB012070BD21690029F8D000F02D
:10218000A3FA0028F4D00D494FF080500860BFF347
:102190004F8FBFF36F8FEBE72E2E5C467265655253
:1021A000544F535C71756575652E63004572726F8F
:1021B000723A25732C25640D0A00000004ED00E03E
:1021C0002DE9FF4782B01D468A464FF00008040003
:1021D00005D140F2D92250A154A0FEF74BF8BAF134
:1021E000000F07D1206C28B140F2DA224AA14FA09B
:1021F000FEF740F8022D08D1E06B012805D040F22F
:10220000DB2245A149A0FEF735F800F07BF938B98B
:10221000049828B140F2DE223FA144A0FEF72AF83C
:10222000464F4FF000094FF0805600BFFFF7EEFA1F
:10223000A06BE16B884207D3022D05D0049808B348
:10224000B8F1000F21D025E02A4651462046FEF77E
:1022500056FEA16C21B129462046FEF77BFF05E022
:10226000616A19B104F1240000F02EFA20B13E6039
:10227000BFF34F8FBFF36F8FFFF704FB012006B052
:10228000BDE8F087FFF7FEFA22E06846FFF742FD5F
:102290004FF00108FFF7F6FAFFF7AAFDFFF7B6FACD
:1022A00094F94400401C01D184F8449094F945000D
:1022B000401C01D184F84590FFF7E4FA04A9684670
:1022C00000F0B0F830B12046FFF708F900F048FA06
:1022D0000020D4E7FFF79AFAA06BE16B884213D194
:1022E000FFF7D0FA04F110000499FFF779FC2046BB
:1022F000FFF7F4F800F034FA002897D13E60BFF3FE
:102300004F8FBFF36F8F91E7FFF7BCFA2046FFF7BF
:10231000E5F800F025FA89E72E2E5C4672656552D5
:10232000544F535C71756575652E63004572726F0D
:10233000723A25732C25640D0A00000004ED00E0BC
:102340002DE9F047984617468946040005D140F22A
:102350009F322BA12FA0FDF78DFFB9F1000F07D100
:10236000206C28B14FF4687225A12AA0FDF782FFE6
:10237000B8F1020F08D1E06B012805D040F2A1327C
:102380001FA124A0FDF776FFFFF70CFB5020EFF311
:10239000118680F31188BFF34F8FBFF36F8FA06B4F
:1023A000E16B884208D3B8F1020F05D05FF000005E
:1023B00086F31188BDE8F08794F9455042464946B6
:1023C0002046FEF79CFD681C04D06D1C84F8455027
:1023D0000120EDE7A06C012520B141462046FEF723
:1023E000B9FE06E0606A0028F2D004F1240000F093
:1023F0006BF90028ECD0002FEAD03D60E8E7000040
:102400002E2E5C4672656552544F535C717565752E
:10241000652E63004572726F723A25732C25640D28
:102420000A00000070B50D46040005D140F6CB321D
:1024300014A119A0FDF71EFF2DB940F6CC3211A151
:1024400015A0FDF717FFFFF7E1F9174AD1682868D3
:10245000431C0FD02368126A934202D062688A42FA
:102460000AD96268891A814206D2401A2860204639
:10247000FFF750FC002400E00124FFF703FA204698
:1024800070BD00002E2E5C4672656552544F535C41
:102490007461736B732E63004572726F723A2573A9
:1024A0002C25640D0A0000003C0000202DE9FF5F90
:1024B0008346DDE90E87994616468A469000FFF767
:1024C00049F805001AD05C20FFF744F8040012D048
:1024D00025630021CDE90241CDE900874B46324614
:1024E00051465846FEF786FD2046FEF73DFC01208A
:1024F00004B0BDE8F09F2846FFF7F6F94FF0FF3033
:10250000F6E700000548416919B1006B18B10020D9
:102510007047012070470220704700003C000020F7
:102520000148C068704700003C0000202DE9F041E0
:102530002D4C0027206B40B1A069401CA061E069D0
:1025400000B101273846BDE8F081E668761CE660F8
:1025500011D1606B006828B140F6D91223A128A0E0
:10256000FDF788FE606BA16B6163A063206A401C6D
:102570002062FEF715FFA06ADFF89480864209D337
:10258000606B006880B1606BC068C568686886422F
:102590000DD2A0622068C06A00EB800158F82100CB
:1025A0000128CCD90127CAE74FF0FF30F1E7281DF9
:1025B000FFF7E8F8A86A18B105F11800FFF7E2F88C
:1025C000E86A0121226981401143216100EB800109
:1025D00008EB8100291DFFF70DF9E86A2168C96A37
:1025E0008842CDD30127CBE73C0000202E2E5C464D
:1025F00072656552544F535C7461736B732E630044
:102600004572726F723A25732C25640D0A00000022
:10261000B801002070B504004FF000063CD01F4DFB
:102620002868844205D040F6C7621DA121A0FDF7AD
:1026300021FE206D28B940F6C96219A11DA0FDF741
:1026400019FE206D401E2065E26CE16A914223D0A4
:1026500010BB201DFFF796F81A4A012150B9E06A15
:1026600000EB800352F8233023B92B6901FA00F004
:1026700083432B61E06CE062C0F12000A061E06A5E
:102680002B6981401943296100EB800002EB800037
:10269000211DFFF7AFF80126304670BD3C00002039
:1026A0002E2E5C4672656552544F535C7461736B99
:1026B000732E63004572726F723A25732C25640D78
:1026C0000A000000B80100202DE9F041C068C4688C
:1026D0002CB940F6613216A11AA0FDF7CBFD04F12A
:1026E00018000746FFF74EF81A4D286B012660B117
:1026F00039461948FFF77EF8E06A2968C96A8842B6
:1027000013D90120EE61BDE8F081201DFFF73AF8F2
:10271000E16A2A6906FA01F01043286101EB8100A1
:102720000E4901EB8000211DE4E70020EBE70000EB
:102730002E2E5C4672656552544F535C7461736B08
:10274000732E63004572726F723A25732C25640DE7
:102750000A0000003C00002060040020B8010020B6
:102760002DE9F0472C4C00252E46206B28B94FF45C
:10277000FD622AA12EA0FDF77DFDFFF747F8206B33
:10278000401E2063206BE0BBA1682D4F0120C1B328
:10279000A7F52A7980463868E8B1F868C56805F178
:1027A0001800FEF7EFFF281DFEF7ECFFE86A22692C
:1027B00008FA00F11143216100EB800109EB81006F
:1027C000291DFFF717F8E86A2168C96A8842E2D331
:1027D000C4F81C80DFE70DB1FEF7E2FDA5694DB13D
:1027E0004FEA0807FFF7A2FE00B1E7616D1EF9D1BD
:1027F0000020A061E06920B112490126300708607D
:1028000000E003E0BFF34F8FBFF36F8FFFF73AF89D
:102810003046BDE8F08700003C0000202E2E5C46CC
:1028200072656552544F535C7461736B732E630011
:102830004572726F723A25732C25640D0A000000F0
:102840006004002004ED00E02DE9F04707469946BA
:1028500016460D462C20DDF820A0FEF77BFE040076
:1028600014D0B8464F46D1462DB94FF4C67209A1CF
:102870000EA0FDF7FFFCFEF7DFFA04F11801C4F823
:10288000008081E8E002201DFEF799FF2046BDE8A8
:10289000F08700002E2E5C4672656552544F535CE3
:1028A00074696D6572732E63000000004572726F6B
:1028B000723A25732C25640D0A0000001CB5002413
:1028C000FEF7BAFA0C48006868B10B491F20091DD1
:1028D000CDE9000100234FF4827208A10948FFF7F7
:1028E000E5FD040005D140F2331207A10CA0FDF76D
:1028F000C1FC20461CBD000078000020546D7220F1
:1029000053766300B91400082E2E5C46726565523A
:10291000544F535C74696D6572732E630000000040
:102920004572726F723A25732C25640D0A000000FF
:102930002DE9FF47DDF830A0994690460E46070086
:102940004FF0000405D14FF4D37212A117A0FDF788
:1029500091FC1A4D286880B1CDE900680297062ED7
:1029600011DAFFF7CFFD02284FF0000309D0002253
:1029700069462868FFF724FC044604B02046BDE8F9
:10298000F0875246F4E700234A466946FFF7D8FC31
:10299000F2E700002E2E5C4672656552544F535C80
:1029A00074696D6572732E63000000004572726F6A
:1029B000723A25732C25640D0A000000780000206F
:1029C000E029000800000020B000000028010008F5
:1029D000902A0008B000002078320000440100086E
:1029E000000000000000000000A24A0400000000F7
:1029F00000000000010203040607080900000000AF
:102A000000000000000000000204060800000000B2
:102A10000102030401020304060708090000000084
:102A200000000000000000000000000000000000A6
:102A30000000000000000000000000000000000096
:102A40000000000000000000000000000000000086
:102A50000000000000000000000000000000000076
:102A60000000000000000000000000000000000066
:102A7000AAAAAAAA000000000000000000000000AE
:102A80000000000000000000000000000000000046
:04000005080000ED02
:00000001FF
